:020000040800F2
:1000000020610020310300088F260008191D000818
:100010008D2600087D0E0008214A0008000000001F
:10002000000000000000000000000000790200084D
:10003000D513000800000000CD020008CD350008EF
:100040004B0300084B0300084B0300084B03000858
:100050004B0300084B0300084B0300084B03000848
:100060004B0300084B0300084B0300084B03000838
:100070004B0300084B0300084B0300084B03000828
:100080004B0300084B0300084B0300084B03000818
:100090004D1000084B0300084B0300084B030008F9
:1000A0004B0300084B0300084B0300084B030008F8
:1000B000B1390008C1390008D53900084B030008E0
:1000C0004B0300084B0300084B0300084B030008D8
:1000D0004B030008594400087D450008B14700085B
:1000E0004B0300084B0300084B030008FD390008D0
:1000F000B13D00084B030008113A00084B0300080B
:100100004B0300084B030008E93900084B030008C3
:100110004B030008614300084B0300084B03000831
:100120004B0300084B0300084B0300084B03000877
:100130004B0300084B0300084B0300084B03000867
:100140004B0300084B0300084B0300084B03000857
:100150004B0300084B0300084B0300084B03000847
:100160004B0300084B0300084B0300084B03000837
:100170004B0300084B0300084B0300084B03000827
:100180004B0300084B03000800F002F800F064F88D
:100190000AA090E8000C82448344AAF10107DA45E2
:1001A00001D100F059F8AFF2090EBAE80F0013F0D0
:1001B000010F18BFFB1A43F00103184744DE00008B
:1001C00064DE00000A444FF0000C10F8013B13F00D
:1001D000070408BF10F8014B1D1108BF10F8015BA0
:1001E000641E05D010F8016B641E01F8016BF9D193
:1001F00013F0080F1EBF10F8014BAD1C0C1B09D1EA
:100200006D1E58BF01F801CBFAD505E014F8016B5B
:1002100001F8016B6D1EF9D59142D6D370470000ED
:100220000023002400250026103A28BF78C1FBD8FF
:10023000520728BF30C148BF0B607047642900F0E7
:100240002781732900F00483002070471FB50BF04D
:10025000B4FC1FBD10B510BD00F076FB1146FFF7D2
:10026000F5FF07F013FB00F094FB03B4FFF7F2FF78
:1002700003BC06F0E1F900002A4B19680868B0E8F1
:10028000F04F80F30988BFF36F8F4FF0000080F3C9
:10029000118870470000000006480068006880F37D
:1002A000088862B661B6BFF34F8FBFF36F8F00DF70
:1002B00000BF00BF08ED00E0DFF80C00016841F46A
:1002C00070010160704700BF88ED00E0EFF3098026
:1002D000BFF36F8F134B1A681EF0100F08BF20ED8D
:1002E000108A20E9F04F106008B44FF0500080F3FE
:1002F0001188BFF34F8FBFF36F8F09F0A3FF4FF04B
:10030000000080F3118808BC19680868B0E8F04F55
:100310001EF0100F08BFB0EC108A80F30988BFF3FD
:100320006F8F7047D0000020EFF30580704700000A
:100330000948804709480047FEE7FEE7FEE7FEE779
:10034000FEE7FEE7FEE7FEE7FEE7FEE704480549B5
:10035000054A064B70470000E13500088901000896
:10036000205B002020610020205D0020205D002017
:10037000704710B54C1084EA530404D54042C1F1D3
:10038000000138BF491E1B4204D55242C3F100038D
:1003900038BF5B1E00F057F914F0804F04D0404284
:1003A000C1F1000138BF491E14F0004F04D0524281
:1003B000C3F1000338BF5B1E10BD00000FB4044939
:1003C00010B503AA029800F047FA10BC5DF814FBC0
:1003D000BC0000202DE9F0410E46044600202062BA
:1003E0002046E168884730B3252805D0D4E90121AB
:1003F0009047206A401CF2E7E168204600278847C2
:10040000050018D0A5F14100192802D820354FF475
:1004100000673246294620462760FFF70FFF40B1AC
:10042000012804D0F61D26F007060836D8E7361D49
:10043000D6E72846DAE7206ABDE8F08170B50C46B9
:100440000546012A05D02878800600D5EA690023F0
:1004500002E0012305E05B1C934202D2E05C00282D
:10046000F9D1A869E618C01AA861286A1844286258
:100470002846AFF3008004E0D5E9012114F8010B10
:100480009047B442F8D32846AFF3008070BD000017
:100490002DE9F0410646002410687529314616A55D
:1004A00010D0AFF30080002802DA404213A507E025
:1004B00031688A0701D512A502E0490704D511A5C4
:1004C000012401E0AFF3008000210A2206F1240795
:1004D00009E0B0FBF2FCB0FBF2F302FB1C00303091
:1004E00078541846491C0028F3D123462A46304642
:1004F000BDE8F04100F029B9000000002D00000027
:100500002B0000002000000040EA010310B59B070B
:100510000FD1042A0DD310C808C9121F9C42F8D06D
:1005200020BA19BA884201D9012010BD4FF0FF301E
:1005300010BD1AB1D30703D0521C07E0002010BD34
:1005400010F8013B11F8014B1B1B07D110F8013BC0
:1005500011F8014B1B1B01D1921EF1D1184610BDA1
:10056000032A40F2308010F0030C00F0158011F8DF
:10057000013BBCF1020F624498BF11F801CB00F8B7
:10058000013B38BF11F8013BA2F1040298BF00F80B
:1005900001CB38BF00F8013B11F0030300F06E817E
:1005A000083AC0F0088051F8043B083A51F804CBEF
:1005B000A0E80810F5E7121D5CBF51F8043B40F8B5
:1005C000043BAFF30080D20724BF11F8013B11F8C0
:1005D00001CB48BF11F8012B24BF00F8013B00F804
:1005E00001CB48BF00F8012B704702F0FF0343EA3C
:1005F000032242EA024200F002B84FF0000204294E
:10060000C0F0128010F0030C00F06C81CCF1040CEF
:10061000BCF1020F18BF00F8012BA8BF20F8022B75
:10062000A1EB0C0100F05EB95FEAC17C24BF00F8C9
:10063000012B00F8012B48BF00F8012B70477047D1
:1006400070477047704753EA020C00F069802DE94B
:10065000F04B4FF00006002B1FBFB3FA83F503FAEF
:1006600005F424FA05F65E4012BF1643B2FA82F58D
:1006700002FA05F4C5F120051EBF22FA05FC44EA82
:100680000C04203556EA044C4FEA144418BF641C8D
:100690004FF000084FF00009904271EB030C39D382
:1006A000002919BFB1FA81F701FA07F6B0FA80F70D
:1006B00000FA07F6C7F120071EBF20FA07FC46EA3A
:1006C0000C062037B6FBF4FCA7EB0507103F07F03C
:1006D0001F0BCBF120060CFA0BFB2CFA06F644BFDD
:1006E000B3460026202FA4BF5E464FF0000B5BEA06
:1006F000060C08BF4FF0010B19EB0B09ABFB027C9A
:1007000048EB0608C01B06FB02CC0BFB03CC71EBCD
:100710000C01C1E70B46024641464846BDE8F08B56
:1007200013B54FF000004FF00001AFF30080BDE8BB
:100730001C40704710B500F0FBF8006810BD10B504
:10074000044600F0F5F8046010BD2DE9F0470D46B1
:1007500099469246044600F124080168880604D5AB
:10076000E06921F01001216000E00120A84201DDD4
:10077000471B00E00027A1697A1902EB0900081A5B
:10078000A0612078C00602D42046AFF30080002686
:1007900008E0D4E901211AF806009047206A401CBD
:1007A000761C20624E45F4DB2078C0060AD5204630
:1007B000AFF3008006E0D4E9012130209047206AA1
:1007C000401C2062381EA7F10107F4DC07E0D4E9E1
:1007D000012118F805009047206A401C2062281E5D
:1007E000A5F10105F3DC2046AFF300802078000678
:1007F00002D50220BDE8F0870120FBE701694A1C11
:1008000002610878704700B58FB0CDE90131002151
:10081000059105497944CDE9031011466846FFF773
:10082000D9FD0FB000BD0000E5FFFFFF10B5436923
:1008300013B1AFF3008001E0FFF700FE012010BD0F
:10084000127800F124010A7000224A700122EDE7BB
:1008500011684FF0FF32E9E7074B70B50D467B4456
:10086000FFF7D1FF0446284600F066F810B14FF0BC
:10087000FF3070BD204670BDCF6A000010B5203A31
:10088000C0F00B80B1E81850203AA0E81850B1E849
:100890001850A0E81850BFF4F5AF5FEA027C24BFFF
:1008A000B1E81850A0E8185044BF18C918C0BDE8F6
:1008B00010405FEA827C24BF51F8043B40F8043BBF
:1008C00008BF7047D20728BF31F8023B48BF11F874
:1008D000012B28BF20F8023B48BF00F8012B7047CE
:1008E0004FF0000200B5134694469646203922BFC9
:1008F000A0E80C50A0E80C50B1F12001BFF4F7AF14
:10090000090728BFA0E80C5048BF0CC05DF804EBF5
:10091000890028BF40F8042B08BF704748BF20F863
:10092000022B11F0804F18BF00F8012B7047000018
:1009300000487047C05A0020007B00F080007047DC
:1009400000487047C05A00207546FFF7F9FFAE46D1
:1009500005006946534620F00700854618B020B5CB
:10096000FFF7F4FCBDE820404FF000064FF0000711
:100970004FF000084FF0000B21F00701AC46ACE847
:10098000C009ACE8C009ACE8C009ACE8C0098D46B4
:10099000704710B50446AFF300802046BDE8104014
:1009A000FFF763BC0029816802D041F0010101E03A
:1009B00021F0010181607047084B10B5D3F8042382
:1009C00007490A40D0E900142143D0E9024004431A
:1009D00021431143C3F8041310BD0000002001405F
:1009E000E030FCFFC06C80B2704702460020126805
:1009F0000A4200D00120704730B542680F4B0C7995
:100A00001A400B6842EA04221343436082680C4B8D
:100A10004D791A40D1E9034323438C6844EA4504E5
:100A2000234313438360C26A097D22F47002491E86
:100A3000C9B242EA0151C16230BD0000FFFEFFFCB5
:100A4000FDF7FFC070B5072609290AD9C568A1F1CD
:100A50000A0404EB4404A640B543A3401D43C5600B
:100A600007E0056901EB4104A640B543A3401D43DF
:100A700005611F23072A09D2446B521E02EB820232
:100A800093409C4391400C43446370BD0D2A09D2AE
:100A9000046BD21F02EB820293409C4391400C43B3
:100AA000046370BDC46A0D3A02EB820293409C431A
:100AB00091400C43C46270BD816841F08041816007
:100AC0007047000038B535489FED351A9FED350A5F
:100AD000D0ED000A10EE810AF3EE0B0A80EE201A28
:100AE000BDEEC10A10EE103A642B00DD64232E48DF
:100AF000DFED2E0A90ED000A20EE200ABDEEC00ABE
:100B000010EE100A002800DA4042294991ED000A4F
:100B100020EE200ABDEEC00A10EE101A002900DAFD
:100B20004942244C2278A2B100222270224C25781E
:100B3000012D10D0214DB5F904403AB3B5F902208A
:100B4000B5F9001001B02346BDE830401CA0FFF706
:100B500035BC0122E9E71E4890ED000A1D48BDEEB4
:100B6000C00A10EE103A90ED000A1B48BDEEC00A14
:100B700010EE102A90ED000A18A0BDEEC00A10EE8B
:100B8000101AFFF71BFC0020207038BDCAB2C1B29A
:100B900016A00094FFF712FC38BD000018000020DA
:100BA00000007A4400401C46385A00200000C84229
:100BB0004C5A0020D401002095010020F4010020AF
:100BC0007B4225643A25643A25647D2400000000B8
:100BD000500100204C010020480100207B43256487
:100BE0003A25643A25647D24000000007B41256499
:100BF0003A25643A25643A25647D240030B58DB0E9
:100C00000121022002F01CFA01210D02284602F007
:100C10002FFA032002218DF82C000A9100248DF870
:100C20002F400AA9134800F0A3FE0121284602F034
:100C30002BFA0021284602F027FA0694680209944C
:100C4000CDE9070406A8FFF7B7FE8DF8044000942D
:100C50008DF80540029404940120074C8DF814008F
:100C600069462046FFF7C8FE01212046FFF79AFE9D
:100C70000DB030BD000402400020014070B58CB0C2
:100C80000121022002F0DCF901214E02304602F07F
:100C9000EFF903208DF82C00012500240A958DF82A
:100CA0002F400AA9134800F063FE0121304602F0EC
:100CB000EBF90021304602F0E7F906946804099444
:100CC000CDE9070406A8FFF777FE8DF804400094ED
:100CD0008DF8054002940494074C8DF81450694631
:100CE0002046FFF789FE01212046FFF75BFE0CB08E
:100CF00070BD000000040240002101401CB506F058
:100D000023FB4E4FDFF838914E4C4F4EDFF83CA19D
:100D100040F6B838002544F29F1B01900A2101A833
:100D200009F0BEF87868404501DA401C786000F0B0
:100D300039FFD9F800000028F0D14548007810B1FB
:100D400000F094FE16E04348007810B102F01EFA5D
:100D500010E04148007810B102F09EF80AE03F48E8
:100D600090ED001A3E48D0ED000A3E4890ED000A92
:100D700000F032FB01F058FA3B4890ED000ABDEE5E
:100D8000C00A10EE100A03F0C3FA28B1002153463E
:100D90005A46084600954EE0D4ED020A94ED000A4A
:100DA00001F0B0F900EE100AB8EEC00A84ED010AB5
:100DB000D6ED020A96ED000A01F0E2F900EE100A03
:100DC00044F23C10B8EEC00A86ED010A01F068FA60
:100DD0002648007802281DD003289FD1244800957A
:100DE00090ED010A2348BDEEC00A10EE103A90EDD6
:100DF000010ABDEEC00A10EE102A96ED010ABDEE02
:100E0000C00A10EE101A94ED010ABDEEC00A10EEF1
:100E1000100A10E0184853465A460068009096EDB4
:100E2000010ABDEEC00A10EE101A94ED010ABDEEE3
:100E3000C00A10EE100A02F083FB6FE7AC0100203D
:100E40005C010020385A00204C5A002061BEFFFF90
:100E50005501002056010020540100207801002097
:100E600074010020700100201800002045010020BE
:100E7000745A0020605A00206C010020FEE7000038
:100E80001CB50121084602F0DBF84FF48070009099
:100E900001208DF8040000218DF8061003218DF843
:100EA00005108DF807006946014800F061FD1CBD82
:100EB000000002402DE9FE4F0024D8B3D1B3CAB3DD
:100EC000C3B3401E491EC7B2CEB2521E5B1E02F013
:100ED000FF099DB20121082002F0B2F80121480665
:100EE00002F0BAF802218DF804104FF0030B4FF016
:100EF00000088DF806808DF805B04FF0010ACDF896
:100F000000B08DF807A069464D4800F031FD092278
:100F100000214B4800F068FD09220121484800F0FB
:100F200063FD4848C0F80080016841F0010101609C
:100F3000021D09E0FFE70120BDE8FE8F641CA4B29A
:100F4000642C01D90220F7E71168C907F6D03D48A3
:100F5000016801600168016001680160016841F099
:100F60001001016001680160016801603549434674
:100F70001C31C1F80080D1F80080DDF830C048EAAB
:100F80008C7CC1F800C0D1F800C04CEA07670F6044
:100F90000F6847EA06560E600F6847EA09460E607A
:100FA0000E682E430E60016821F0010101604FF6CA
:100FB000F07005E0641CA4B2844201D90320BBE7B1
:100FC0001168C907F6D12048016841F001010160AC
:100FD0001D491C310A6822F001020A601A4A0C32CB
:100FE000146844F001041460021D14681460164A69
:100FF000143214681460144A40321360121D1360D6
:101000000A6842F001020A60016803600D4814306A
:10101000016841F00201016014208DF808008DF88C
:1010200009A08DF80AB08DF80BA002A801F030FBE2
:1010300001220221034800F07DF900207CE7000036
:10104000000C0240006400400066004010B588B00B
:1010500002A907A8CDE9000106AB05AA04A9002052
:1010600000F070F80498A0F5807181394BD12949BE
:1010700001209FED2F1A087027490020304C08707E
:1010800026490870264908702649087026490870C4
:10109000264908709DF809009DF8081000EB012012
:1010A00000B200EE100A2348F8EEC00A80EE810A72
:1010B00080ED000A9DF80B009DF80A1000EB01205E
:1010C00000B200EE900A1C48F8EEE00AC0EE811A69
:1010D000C0ED001A9DF80D009DF80C1000EB0120EA
:1010E00000B200EE900A1549F8EEE01A09780229DC
:1010F000C1EE810A09D000EE100AB8EEC00AC0EEB7
:10110000010AC4ED000A08B010BD03F08BFC84EDA9
:10111000000AF8E757010020540100205601002082
:10112000550100209001002091010020D0010020F5
:1011300000007A4470010020740100204501002065
:1011400078010020F0B5224CDDE9057504EB0014B0
:10115000D4F8B06516F004061670D4F8B02532D075
:10116000D2080A60D4F8B01501F002011970D4F861
:10117000B41501F00F013970D4F8B8152970D4F8FE
:10118000B815090A6970D4F8B815090CA970D4F813
:10119000B815090EE970D4F8BC152971D4F8BC153E
:1011A000090A6971D4F8BC15090CA971D4F8BC15E9
:1011B000090EE97148B1012804D10648016841F0DF
:1011C00020010160F0BD520DCBE70248001FF5E79A
:1011D000006000401064004038B5002400910823EE
:1011E0002246214600F014F8054640F6FF7301E060
:1011F000641CA4B2284600F06BF8072801D09C427A
:10120000F6D39C4201D3012038BD002038BD000038
:10121000F0B506462C48059D0468640101D5002000
:1012200008E00468240101D5012003E00068C00043
:1012300046D50220254C002704EB0014C4F8807525
:10124000E9B3F600D4F880753743C4F88075D4F854
:10125000806546EA8101C4F88015D4F8801541EA1A
:101260004201C4F88015D4F8842503F00F0122F060
:101270000F02C4F88425D4F884250A43C4F88425D1
:101280002979EA796B7941EA0261AA79120442EA82
:1012900003221143C4F88C152978EA786B7841EA67
:1012A0000261AA78120442EA03221143C4F88815A5
:1012B000D4F8801541F00101C4F88015F0BD01E0BB
:1012C000FF20FBE77605BDE70864004000600040B2
:1012D000174928B1012810D002281BD005207047DB
:1012E00008680A6800F0010002F002020243086880
:1012F00000F0806042EA1060704708680A6800F0F9
:10130000010002F002020243086800F0006042EAB5
:101310005060704708680A6800F0010002F002029D
:101320000243086800F0805042EA90607047000075
:1013300008640040002A426901D00A4300E08A4361
:10134000426170477CB5144C00206D46215C2954E5
:10135000401CC0B20828F9D3294640F20110FFF71B
:101360003BFF00202118097A2954401CC0B20828EC
:10137000F8D369464FF48170FFF72EFF0020211843
:10138000097C2954401CC0B20828F8D3694640F2B1
:101390000310FFF721FF7CBD9A06002030B50346FD
:1013A0000020012908D10022094C03E0A55C684017
:1013B000521CD2B29A42F9D3002908D1044A3232DF
:1013C00003E0545C6040491CC9B29942F9D330BD76
:1013D0009A060020704700002DE9F0417D482DED70
:1013E0000C8BF0EE408AF0EE0CCAF8EE0CBA0078E6
:1013F0009FED79CA7B49794E794F7B4D7B4C91EDBE
:10140000000AB6EE00DA022827D0032821D161EEC7
:10141000000AB0EE680AB0EE6C1A00EECD0A40EE9B
:101420008D8AF0EE6B0A85ED020AC4ED028A08F09F
:10143000D4F985ED020A94ED020AB0EE6C1AF0EED2
:101440006B0A08F0CAF984ED020A86ED02CA87ED3C
:1014500002CABDEC0C8BBDE8F0819FED65BA20EEB1
:101460000D0AB0EE418A884610EE100A0AF034FBED
:1014700041EC1A0BB0EE481A11EE100A0AF02CFBE0
:1014800041EC100B04F0FCFB5A48B0EE409AF0EE31
:10149000609A00680AF020FB53EC192B09F0FCFD60
:1014A00053EC1A2B0AF02EFA09F008FDB0EE481A98
:1014B00000EE100AB5EEC01AF1EE10FA16D0D8ED13
:1014C000000AB0EE401A00EECD1A21EE281AC1EE45
:1014D000001AB0EE401A00EE8D1A61EE280A80EE76
:1014E000801AC5ED021A84ED021A03E0C5ED028AE6
:1014F000C4ED028A9FED400A28EE000A10EE100AA1
:101500000AF0EAFA41EC1A0B18EE100A0AF0E4FAB3
:1015100041EC100B9FED391B03F08AFD9FED391B49
:1015200051EC100B53EC112B09F0E0FF41EC190BBF
:1015300018EE100A0AF0D0FA41EC100B9FED331BA5
:1015400003F076FD9FED331B51EC100B53EC112B88
:1015500009F0CCFF53EC192B09F0E2FC53EC1A2BE9
:101560000AF0D0F99FED2D1B53EC112B09F0D8FC9C
:1015700009F0A4FC00EE100ADFED2A0A2B4BB0EEB6
:101580006C1A70EE600A9FED280A00EE8B0AF0EEEE
:101590006B0ABDEEC00A83ED000A95ED020A08F061
:1015A0001CF985ED020A94ED020AB0EE6C1AF0EE19
:1015B0006B0A08F012F984ED020A86ED02CA87ED83
:1015C00002CA40F698024FF44871186808F015F9FD
:1015D00018603EE74501002000000000605A00202E
:1015E000745A002084010020385A00204C5A0020F0
:1015F000D7231F4488010020E5D0E23F000000000F
:101600000000004000000000D34DF43F0000000047
:1016100000000840000000809318E4BF00000000B4
:10162000022BF93F4C37C93F0080BB446C010020BE
:101630001CB50121082001F003FD082000900020C6
:101640008DF8040003208DF8050001208DF80700B7
:101650006946024800F08CF91CBD0000000C0240F5
:10166000F0B5012189B0084601F0F6FC0121032004
:1016700001F0E6FC03258DF8055002264FF40040EA
:101680008DF8046001242B4F00908DF806408DF8F2
:1016900007406946384600F06BF98DF805508DF823
:1016A00004608DF806408DF807400820224C009019
:1016B0006946204600F05CF901220F21384600F00F
:1016C00093F901220321204600F08EF902A802F0CE
:1016D00015FE00244FF6FF70ADF808400390750723
:1016E000ADF81040ADF80A4002A9284602F0C8FD46
:1016F00000231A460321284602F0E3FB05A802F066
:1017000063FCADF81C4005A9284602F007FC012146
:10171000284602F0BBFB01221146284602F05CFC81
:101720000021284602F082FD0121284602F0B4FB88
:1017300009B0F0BD000002400004024030B589B09D
:101740000121022001F088FC0121022001F078FC37
:101750003020039003208DF8110002208DF8100036
:1017600001208DF81200224C8DF8130003A92046A9
:1017700000F0FEF802220421204600F035F9022292
:101780000521204600F030F9684602F0B7FD00243C
:101790004FF6FF70174DADF800400190ADF80840CE
:1017A000ADF802406946284602F06AFD00231A4659
:1017B0000321284602F085FB05A802F005FCADF8E0
:1017C0001C4005A9284602F0A9FB0121284602F089
:1017D0005DFB01221146284602F0FEFB002128464F
:1017E00002F024FD0121284602F056FB09B030BD6D
:1017F000000402400004004030B589B001210420FB
:1018000001F02AFC0121022001F01AFCC020039003
:1018100003208DF8110002208DF8100001208DF8B2
:101820001200224C8DF8130003A9204600F0A0F806
:1018300002220621204600F0D7F802220721204686
:1018400000F0D2F8684602F059FD00244FF6FF7010
:10185000174DADF800400190ADF80840ADF80240DA
:101860006946284602F00CFD00231A46032128464B
:1018700002F027FB05A802F0A7FBADF81C4005A964
:10188000284602F04BFB0121284602F0FFFA012214
:101890001146284602F0A0FB0021284602F0C6FCB3
:1018A0000121284602F0F8FA09B030BD00040240D8
:1018B0000008004030B589B00121082001F0CCFBC0
:1018C0000121084601F0BCFB274C022200212046E2
:1018D00000F08AF802220121204600F085F802215A
:1018E0008DF811108DF81010012103208DF81210C1
:1018F00003908DF8131003A9204600F039F86846CC
:1019000002F0FCFC00244FF6FF70184DADF80040CB
:101910000190ADF80840ADF802406946284602F053
:10192000AFFC00231A460321284602F0CAFA05A894
:1019300002F04AFBADF81C4005A9284602F0EEFA79
:101940000121284602F0A2FA01221146284602F09F
:1019500043FB0021284602F069FC0121284602F0E1
:101960009BFA09B030BD000000000240000C0040AE
:10197000F0B5002201274FF0030C0B6807FA02F5BF
:101980002B40AB422CD1066853000CFA03F4A6435B
:1019900006600E79D0F800E09E4046EA0E0606602A
:1019A0000E79012E01D0022E12D18668A6438660E0
:1019B0004E79D0F808E09E4046EA0E0686604668FA
:1019C000AE43466045688E799640B6B23543456071
:1019D000C568A543C560CC799C40C3681C43C460FE
:1019E000521C102AC9D3F0BD4B07DB0E9A40C90820
:1019F00010B500EB8100016A0F249C40A1430162F5
:101A0000016A1143016210BD0183704710B50A4C91
:101A10000146072301222046FFF714F82046FFF76E
:101A20004BF802212046FEF7E0FF0028F9D02046BF
:101A3000BDE81040FEF7D6BF0020014010B50A4CAB
:101A40000146072301222046FEF7FCFF2046FFF750
:101A500033F802212046FEF7C8FF0028F9D02046BF
:101A6000BDE81040FEF7BEBF0021014040480278AB
:101A70009FED401A404890ED000AF1EE400ADFED7C
:101A80003F1A9FED3F2A3F493F48092A2CD2DFE801
:101A900002F02B05080B1013181B280081ED000A1B
:101AA0000CE081ED000A01E081ED001AC0ED001AA2
:101AB0000EE0C1ED000AF9E7C1ED000A80ED001A61
:101AC00006E0C1ED000A01E081ED001A80ED002A78
:101AD0002E4A1278012A0AD02D4A1278012A09D0FA
:101AE0000AE081ED000AF1E781ED001AE6E780EDFA
:101AF000002A01E0C0ED001A264A1278022A06D018
:101B0000032A0DD0052A0BD0042A09D01DE090ED40
:101B1000000AF0EE000A20EE200AF2EE020A10E0BF
:101B2000D1ED000AF5EEC00AF1EE10FAD0ED000A90
:101B300003D2F1EE600AC0ED000A20EE800ADFED6C
:101B4000160A80EE201A80ED001AD1ED000A9FEDF2
:101B5000131A80EE810A81ED000A1149D1ED001AB5
:101B6000C1EE810AC1ED000A90ED001AFFF734BC06
:101B7000580100200000000048010020DB0FC9BF11
:101B8000DB0FC93F70010020780100209201002086
:101B900093010020450100200000FA4300007A4430
:101BA0007401002010B502202DED048B01F0CEFA57
:101BB0002A4C2060032001F0C9FA6060042001F083
:101BC000C5FAA060052001F0C1FA2549E060097856
:101BD000022901D0032911D194ED000A6168F8EEC1
:101BE000C09A494200EE101AB8EEC09A94ED020A6B
:101BF000F8EEC08A00EE100AB8EEC08A9FED191AFE
:101C0000194829EE810AD0ED000A184860EE201A22
:101C100090ED000A164881EE802A69EE011A61EE05
:101C2000A01A80ED002A81EE802A68EE811A114800
:101C300028EE011A61EEA01A61EE200A80EE801AE9
:101C400080ED002A0C4881EE802A80ED002A0B48A6
:101C500080ED001ABDEC048B10BD0000885A0020F6
:101C6000450100200000C842800100207C010020C6
:101C7000385A00204C5A0020605A0020745A002024
:101C80002DE9F04100250E4607462C4608E038466F
:101C9000FFF7BCFE0544052004F038FE641CE4B2E6
:101CA000B442F4D3B5FBF6F080B2BDE8F081000099
:101CB00010B50820FFF7C2FE09F0C8FB9FED0E1B10
:101CC00053EC112B09F012FC9FED0D1B53EC112B63
:101CD00009F00CFC9FED0C1B53EC112B09F006FCDA
:101CE0009FED0B1B53EC112B09F000FC09F0E6F8FB
:101CF00000EE100A10BD00006666666666660A4061
:101D000000000000000026400000008014AEEF3FFD
:101D1000000000000000303FFEE7000070B50D4CF1
:101D20000025C4F8A8520C48016821F44001016064
:101D3000016841F480010160C4F8AC52012004F54F
:101D40002A7404F0FFFD0120206004F0FBFD2560F3
:101D500070BD000000804042000402401CB501211B
:101D6000022001F06DF94FF44060012400908DF8DD
:101D7000044000208DF8060003208DF805008DF842
:101D8000074069460448FFF7F3FD0448C0F8A8423D
:101D9000C0F8AC421CBD000000040240008040427C
:101DA00070B50D4C0026C4F8A8620C48016821F4F7
:101DB00040010160016841F4800101600125C4F81F
:101DC000AC52284604F52A7404F0BCFD25600120BD
:101DD00004F0B8FD266070BD00804042000402405F
:101DE0002DE9F0411D4616000F46044617D0B5B147
:101DF00000F080F8204600F03BF900F0C3F83846C8
:101E000000F036F900F0BEF800F074F844F001007C
:101E100000F02EF900F0B6F80024771E0CE0002048
:101E2000BDE8F081A74201D1012000E0002000F0D0
:101E300009F82855641CE4B2B442F3D300F082F8E8
:101E40000120EDE72DE9F04781461848002501689B
:101E500021F44001016001680160154E2C462F46B7
:101E60004FF00108C6F8A872012004F06BFDC6F817
:101E7000A8826806D6F82C12000E11B140F00105B8
:101E800001E020F00105012004F05CFD641CE4B2D7
:101E9000082CE7D3B9F1000F04D0FFF781FF2846E3
:101EA000BDE8F087FFF73AFFF9E7000000040240C1
:101EB0000080404270B50D46044600F01BF82046F5
:101EC00000F0D6F800F05EF8284600F0D1F800F0F7
:101ED00059F800F00FF844F0010000F0C9F800F0E4
:101EE00051F80120FFF7AEFF044600F02BF8204622
:101EF00070BD000070B51148016821F44001016017
:101F0000016841F4800101600D4C0120C4F8AC026D
:101F1000D4F82C1200290FD0C4F8A80204F012FD46
:101F20000025C4F8AC52D4F82C02002804D10120BA
:101F300004F008FDC4F8A85270BD0000000402407F
:101F4000008040420D4810B5016821F44001016055
:101F5000016841F480010160094C0020C4F8A80226
:101F6000C4F8AC02012004F52A7404F0EBFC012053
:101F700020606060BDE8104004F0E4BC0004024052
:101F80000080404270B512480024016821F44001ED
:101F90000160016801600F4D0126C5F8AC62304652
:101FA00004F0D0FCC5F8A86207E0641CE4B2322C4F
:101FB00003D9FFF7C7FF002070BD012004F0C2FC69
:101FC000D5F82C020028F0D1C5F8A802012070BD78
:101FD00000040240008040422DE9F0411D461446B5
:101FE0000F468046069EFFF765FF621CFF21C4F185
:101FF000080301FA02F22B445B1ED9400A43C5F1E3
:1020000008018E40D2B2F1B2C4F10703D9401040AA
:1020100040EA01023946404600F05AF80120BDE886
:10202000F0812DE9F0411D4616000F4604460ED002
:102030006DB1FFF75FFF204600F01AF8FFF7A2FF2F
:10204000384600F015F8FFF79DFF002409E0002056
:10205000BDE8F081285D00F00BF8FFF793FF641CEA
:10206000E4B2B442F6D3FFF76DFF0120F0E70000C1
:102070002DE9F04105461448016821F44001016052
:10208000016841F480010160104E0027C6F8A87273
:102090003C464FF00108E809C6F8AC026806050E98
:1020A000012004F04FFCC6F8A882012004F04AFC8D
:1020B000C6F8A872012004F045FC641CE4B2082CA8
:1020C000E9D3BDE8F08100000004024000804042F6
:1020D00070B515460E460446FFF70CFF2046FFF785
:1020E000C7FFFFF74FFF3046FFF7C2FFFFF74AFF7A
:1020F0002846FFF7BDFFFFF745FFFFF723FF01204D
:1021000070BD0000174830EEC00A1749D0ED050A2F
:10211000174A91ED001A70EE600A144960EE810AC8
:1021200091ED001A41EE000A90ED041A70EE810A5A
:1021300010EE901AC0ED040A914203DDDFED0D0AA6
:10214000C0ED040A10EE901A0B4A914203D9DFED5C
:102150000B0AC0ED040A80ED050ABDEEE00A10EEA0
:10216000100A7047AC0100204C01002050010020F3
:102170000078824600788246007882C6007882C65F
:10218000174830EEC00A1749D0ED080A174A91EDFA
:10219000001A70EE600A144960EE810A91ED001A8F
:1021A00041EE000A90ED071A70EE810A10EE901AC7
:1021B000C0ED070A914203DDDFED0D0AC0ED070A0D
:1021C00010EE901A0B4A914203D9DFED0B0AC0EDD5
:1021D000070A80ED080ABDEEE00A10EE100A70470B
:1021E000AC0100204C010020500100200078824604
:1021F00000788246007882C6007882C61CB501212C
:10220000102000F01DFF00218DF804100321012093
:102210008DF8051000908DF8070069460148FFF71A
:10222000A7FB1CBD0010024010B5322004F056FA86
:1022300002280BD1074906480A6802608988818014
:10224000064905480A6802608988818010BD00003F
:1022500000020020060200200C02002012020020D2
:102260007CB50121084600F0EBFE01208DF804004A
:1022700000228DF8062003218DF80510074D4FF43C
:1022800080548DF80700009469462846FFF770FBDC
:1022900021462846FFF7B8FB7CBD00000000024045
:1022A00000EE900A41420F4AB8EEE01A00EE901A92
:1022B00000B592ED010AF8EEE00A07F08EFA00EEA2
:1022C000900A82ED010A084AB8EEE01A00EE901A70
:1022D00092ED010AF8EEE00A07F07FFA82ED010ABA
:1022E00000BD0000385A00204C5A002010B50446AA
:1022F0002DED068B8EB00CA906A8CDE900010BAB25
:1023000002AA09A907A804F087FC20B101200EB099
:10231000BDEC068B10BDBDF81800C00548D59DED7D
:10232000020AF8EEC00A9FED230A60EE809ADDED06
:10233000030AF8EEE00A20EE809ADDED040AF8EEDA
:10234000E00A60EE808ADDED050AF8EEE00A20EE94
:10235000808A29EEA90A09EE090A08EEE80A08EEC1
:10236000480A10EE100A09F0B7FB29EE280AF0EE31
:10237000000A41EC1A0B09EE880A20EE200A10EE42
:10238000100A09F0A9FB41EC100BB0EE4A1AF0EE6E
:102390006A1A02F04DFD9FED081B51EC100B53EC37
:1023A000112B09F0A3F808F089FD20600020AEE7AA
:1023B0000220ACE7000080306666666666A64C4088
:1023C00010B505F055FBD8B9782005F0E1FF78206D
:1023D00005F078FA642005F09FFF04F013FC09482B
:1023E00005F00EFA04F0D0FD40F2731004F0E2FAAA
:1023F000642004F031FD06F0E1FF012005F0B2FE9B
:10240000002010BD44020020BC2801D3012210E0AE
:10241000622801D302220CE02A2801D3032208E01B
:10242000142801D3042204E00A2801D3052200E085
:1024300006221A21D020FFF74BBE10B504464FF4F8
:102440007A70844201D9044602E0042C00D20424AC
:10245000B0FBF4F0401EC2B21921D020FFF738FEC5
:102460006008BDE81040FFF7CFBF10B580226B2198
:10247000D020FFF72DFEC82004F048FA00226B217F
:10248000D020FFF725FE012000F03AF8002000F0F0
:102490002EF83220FFF7D1FF00223821D020FFF79D
:1024A00017FE00226A21D020FFF712FE002223210E
:1024B000D020FFF70DFE80223721D020FFF708FE45
:1024C0007521D020FFF7F6FC682801D0012010BD4F
:1024D00001226B21D020FFF7FBFD00226C21D020D0
:1024E000FFF7F6FD3220FFF7A8FF002010BD08B56A
:1024F0000223009004221C21D020FFF76DFD08BDAF
:1025000008B50223009004221B21D020FFF764FDB0
:1025100008BD000008B504F017FF0F4C4FF47A75A2
:1025200000900A21684607F0BBFC2068A8420ADA3E
:10253000401C2060A0686061A0892083D4F80E0050
:102540002062608AA08400F04DF800F007F802488D
:10255000001DFFF7CBFEE4E7EC01002070B53C2145
:10256000D020FFF7A7FC04463B21D020FFF7A2FCB8
:1025700004EB00201A4C3E212080D020FFF79AFC6B
:1025800005463D21D020FFF795FC05EB002060803B
:102590004021D020FFF78EFC05463F21D020FFF7D9
:1025A00089FC05EB002000B2A4F10E01A0800968AF
:1025B000B1F57A7F12DB04F1180321881980628853
:1025C0005A8098809B1F1D88491B21805988511A69
:1025D00061809988401A00F58040A08070BD00009D
:1025E000FA01002070B54421D020FFF763FC0446B7
:1025F0004321D020FFF75EFC04EB0020204C462155
:102600002080D020FFF756FC05464521D020FFF75B
:1026100051FC05EB002060804821D020FFF74AFCE8
:1026200005464721D020FFF745FC05EB002000B20E
:10263000A4F10801A08009684FF47A75114A124B81
:10264000A94203DA01201860107070BDA94201D1BF
:10265000002111704FF496711960094B21881233D3
:10266000198062885A8098809B1F1D88491B218091
:102670005988511A61809988401AA08070BD000065
:10268000F40100204401002034000020FEE77047E0
:1026900030B50F23C27801780125FAB1144A1268C7
:1026A00001F1E02102F4E062C2F5E062C2F3072228
:1026B000C2F10404D3404278A24084781C40144301
:1026C000220181F80024007800F01F018D404009AC
:1026D000800000F1E020C0F8005130BD01F01F0083
:1026E00085404809800000F1E020C0F8805130BDED
:1026F0000CED00E002490843024908607047000001
:102700000000FA050CED00E010B40021084B0A4669
:10271000002003EBC004401CC0B262548028F8D3F0
:10272000491CC9B20829F3D310BC00F0B9B80000A5
:102730005002002010B57F2816D83F2914D807234F
:10274000A3EBD10301F00701C1F107040121A1406E
:10275000064CDBB204EBC000002AC25CC9B201D057
:102760000A4300E08A43C25410BD0000500200201A
:102770007CB50121082000F063FC01268DF804607F
:1027800000244FF4F0408DF8064000908DF805408D
:102790008DF8074069464048FFF7EAF8012108072D
:1027A00000F05AFC012000F045FC002000F0C0FCC5
:1027B000002000F03FFC394DC5F8B042642005F51B
:1027C0002C7504F0A3F82E600021AE2000F02AF949
:1027D0000021D52000F026F90021502000F022F938
:1027E0000021A82000F01EF900213F2000F01AF976
:1027F0000021D32000F016F90021084600F012F95C
:102800000021402000F00EF900218D2000F00AF98F
:102810000021142000F006F90021202000F002F928
:102820000021022000F0FEF80021A12000F0FAF8BB
:102830000021C02000F0F6F80021DA2000F0F2F8C4
:102840000021122000F0EEF80021812000F0EAF8CB
:102850000021EF2000F0E6F80021D92000F0E2F896
:102860000021F12000F0DEF80021DB2000F0DAF892
:102870000021302000F0D6F80021A42000F0D2F88A
:102880000021A62000F0CEF80021AF2000F0CAF809
:10289000FFF73AFF7CBD0000000C0240008041427F
:1028A00070B5104E002505F1B000C0B2002100F057
:1028B000B9F80021084600F0B5F80021102000F01A
:1028C000B1F8002406EBC4000121405D00F0AAF835
:1028D000641CE4B2802CF5D36D1CEDB2082DE2D35C
:1028E00070BD0000500200202DE9F04F203A9846BC
:1028F0000D468346894602F0FF0A00262EE0B8F115
:102900000C0F08D0174901EB0A100027845D200640
:1029100007D5099A08E014490AEB4A0001EB800048
:10292000F3E7099890B1002229465846FFF702FFC5
:102930006D1C6006EDB2040EA5EB0901414507D1FF
:102940000BF101004D4600F0FF0B05E00122EBE723
:102950007F1CFFB2082FDAD3761CF6B24645CED3E1
:10296000BDE8F08F32C10008BEBC00082DE9FF4F62
:1029700081B00027DDF838B01D46924680463C46BF
:102980004FF001094FEA5B0627E0281B401EC1B249
:102990000A2005F083FDBAFBF0F00A21B0FBF1F24A
:1029A00001FB120027B9691E8C4201DA48B10127E8
:1029B0003030C2B206FB0480C0B25B46CDF8009056
:1029C00006E006FB0480C0B25B462022CDF80090F2
:1029D0000299FFF789FF641CE4B2AC42D5D305B07D
:1029E000BDE8F08FF8B516460D460446012714E001
:1029F0007A2C02D900241035EDB23A2D03D90024E7
:102A00002546FFF781FE009732780C2329462046A1
:102A1000FFF76AFF0834E4B2761C30780028E7D16B
:102A2000F8BD000030B500230E4A012411B1C2F8F0
:102A3000AC4201E0C2F8AC320021C2F8B83205065F
:102A400002D5C2F8B44201E0C2F8B432C2F8B842CA
:102A50004006491C000EC9B20829EED3C2F8AC42A8
:102A600030BD0000008041420020044A014611545C
:102A7000401CC0B20928FAD370470000500600205D
:102A80002DE9F84301250746ADF800501B48002604
:102A90004670ADF800501A4C80464FF6FF7924E09E
:102AA000BDF80000384202D0C4F8B05201E0C4F8CA
:102AB000B062C4F8A052052003F044FFC4F8A0623D
:102AC000052003F03FFFC4F8A052D4F83C0230B117
:102AD00098F80110BDF80020114388F80110BDF8E6
:102AE000001009EA4100ADF80000BDF80000FF2821
:102AF000D6D9BDE8F843102003F024BF50060020CB
:102B00000000424270B5FFF7AFFF00F013F90B4829
:102B10000B4AB0F803400A480832448000200125DF
:102B200012F8103000F101005B1E05FA03F121429A
:102B3000C0B202D01028F3D3002070BD5006002090
:102B40003C00002010B5154C0020C4F8A80210204D
:102B500004F52A7403F0F6FE0120FFF791FF4320ED
:102B6000FFF78EFF0020FFF78BFF0120FFF788FFA4
:102B70000020FFF785FF0020FFF782FF0020FFF70E
:102B80007FFF0020FFF77CFF0020FFF779FF012087
:102B90002060BDE81040102003F0D4BE0000424287
:102BA00010B5154C0020C4F8A802102004F52A74B2
:102BB00003F0C8FE0120FFF763FF4320FFF760FF2B
:102BC0000020FFF75DFF0020FFF75AFF5A20FFF7B4
:102BD00057FF5A20FFF754FF5A20FFF751FF5A20A2
:102BE000FFF74EFF5A20FFF74BFF01202060BDE8A2
:102BF0001040102003F0A6BE000042427CB5012127
:102C0000102000F01DFA4FF40040002400908DF8D1
:102C1000044003208DF805000C4E02258DF8075066
:102C200069463046FEF7A4FE01218DF804108DF8A8
:102C300006404FF4A8508DF8055000908DF807100D
:102C400069463046FEF794FE7CBD0000001002404D
:102C500010B5FFF757FF00EE100A27482C4BB8EECF
:102C6000400A012280ED000A2448C17900EE901A42
:102C70002349F8EE600AC1ED000A017A00EE901ACD
:102C80002049F8EE600AC1ED000A417901EE101A00
:102C90001D49B8EE411A81ED001A807910EE101A24
:102CA00001EE100A1948B1F1814FB8EE411A80EDDA
:102CB000001A184801D10178E1B15968002918D0EB
:102CC00010EE901A144B994213DA0178002910D1B2
:102CD00012490968B1F57A7F0BDB114902700020B7
:102CE00008701049087010490870104908701049A0
:102CF000087010BD5A60E3E7A801002050060020CC
:102D0000980100209C010020A0010020A4010020C7
:102D10003C000020540100200000EC42EC010020A7
:102D2000560100205501002057010020900100208D
:102D3000910100202DE9FC4100268DF8006001255D
:102D4000ADF80450224CC4F8A862224F3878FFF73F
:102D500097FE7878FFF794FE02208DF800001E4F52
:102D60004FF6FF782CE0ADF804501DE0C4F8A052F7
:102D7000052003F0E7FDC4F8A062052003F0E2FDA2
:102D8000C4F8A052D4F83C0240B19DF80000BDF850
:102D90000410385C08439DF800107854BDF8041006
:102DA00008EA4100ADF80400BDF80400FF28DDD9B1
:102DB000102003F0C7FD9DF80000401C8DF80000B6
:102DC0009DF800000928CED3C4F8A852BDE8FC81C4
:102DD000000042423C0000205006002010B500F0E8
:102DE0000DF800F00BF800F009F8FFF7ABFE00F06B
:102DF00027F8BDE81040FFF7D3BE000010B50F4C18
:102E00000020C4F8A802102004F52A7403F09AFDEB
:102E10000120FFF735FE4220FFF732FE0020FFF7CA
:102E20002FFE0020FFF72CFE0020FFF729FE0120D7
:102E30002060BDE81040102003F084BD0000424235
:102E400010B5144C0020C4F8A802012004F52A741F
:102E5000FFF716FE4420FFF713FE0020FFF710FED9
:102E60000120FFF70DFE0320FFF70AFE0020FFF709
:102E700007FE0020FFF704FE0020FFF701FE002000
:102E8000FFF7FEFD01202060BDE81040102003F098
:102E900059BD000000004242554830B4D0ED000A50
:102EA0009FED540A54486FF0130370EE600AFDEE74
:102EB000E00A10EE901AD0ED000A504870EE600A59
:102EC000FDEEE00A10EE902AD0ED000A9A4230EEB4
:102ED000600ABDEEC00A10EE100A02DD142A00DA04
:102EE0000022994202DD142900DA0021984202DD15
:102EF000142800DA0020424B434C424D1B6894EDED
:102F0000000AF1EE040AAB4202D130EE200A04E0DE
:102F10003E4DAB4203D130EE600A84ED000AB5EEBF
:102F2000C00AF1EE10FA03D29FED390A84ED000ACF
:102F300000EE102A01EE901AD4ED000AB8EEC00A95
:102F400002EE100AF8EEE11ADFED352AB8EEC22AD9
:102F500020EE201A9FED2F0A61EEA01A22EE222AFF
:102F600021EE001A2C4A61EE801A2C4B22EE000A48
:102F70002C4982ED001A2C48C3ED001A81ED000A9D
:102F800000789FED2A2AF0B101281CD0022806D033
:102F900003280FD005280DD004280BD019E0F0EE3F
:102FA000000A20EE200AF2EE020A80EE202A81EDCD
:102FB000002A0EE0B5EEC01AF1EE10FA03D2B1EE1F
:102FC000400A81ED000A20EE200AC0EE020AC1ED9F
:102FD000000A9FED172A81EE020AC1EE820A82EDF5
:102FE000000AC3ED000A91ED001A30BCFEF7F4B9F7
:102FF00098010020000000439C010020A001002057
:10300000A8010020000030414801002000001041CC
:10301000000000000000003C70010020740100204E
:10302000DB0FC93F78010020450100200000FA4372
:1030300000007A44014908627047000000000E4217
:10304000044A0029116801D0014300E08143116066
:103050007047000030380240044A0029116801D04E
:10306000014300E081431160704700004038024096
:10307000044A0029116801D0014300E08143116036
:103080007047000044380240044A0029116801D00A
:10309000014300E081431160704700002438024082
:1030A00070B5204B1968204C11F00C0104D066104B
:1030B000042903D0082903D004601BE0066019E04E
:1030C000184A121F1168C1F38055116801F03F01C1
:1030D00015B1B6FBF1F101E0B4FBF1F1146812682F
:1030E000C4F388146143C2F30142521C5200B1FB85
:1030F000F2F1016019680F2202EA11110B4A545CC7
:103100000168E14041601C68072505EA9424145DCC
:1031100021FA04F484601B6805EA5333D25CD14081
:10312000C16070BD083802400024F400C0000020D7
:10313000054900220A700A70012802D0042801D132
:1031400005200870704700007038024000210228F6
:1031500007D003280BD004280BD005280BD0002063
:1031600070474FF08042506A516200B27047044A83
:1031700002E0044A00E0044A1068116000B270479F
:103180002404004024080040240C00402DE9F041B4
:103190004FF4FA66614B771032463946186806F0EC
:1031A0002CFB5F4D186032463946286806F025FB37
:1031B0005C4C286032463946206806F01EFB3246D9
:1031C000594E20603946306806F017FB30602A6897
:1031D00021681B686FF06304A2F2DC52A0F2DC509D
:1031E000A1F2DC51A3F2DC53A24202DD642A00DA30
:1031F0000022A04202DD642800DA0020A14202DDA4
:10320000642900DA0021A34202DD642B00DA0023E6
:1032100000EE101A454CB8EEC00AD4ED000A30EEAC
:10322000800ABDEEC00A10EE101A002900DA002153
:103230004FF4FA754A4392FBF5F24042484390FB43
:10324000F5F000EE102ADFED3C1A394CF8EEC00A1A
:1032500000EE100A5842374DB8EEC01A00EE100AC0
:10326000374AC4ED000AB8EEC00A364885ED001AA8
:1032700020EE212ADFED311A82EE210A82ED000ACA
:10328000007850B1012808D002280DD0032812D0B0
:10329000052810D004280ED022E002EE101AB8EE55
:1032A000C22A20EE020A17E0F0EE001A20EE210AF0
:1032B000F2EE021A10E0F5EEC00AF1EE10FA03D2B7
:1032C000B1EE400A82ED000AB0EE402A00EE101A7C
:1032D000B8EEC00A22EE000A80EE212A82ED002A12
:1032E0009FED190A1949C0EE801AC1EE000AC4ED1B
:1032F000001AC5ED000A087838B19FED150A401E86
:1033000084ED000A82ED000A087092ED001A94ED37
:10331000000ABDE8F041FEF75FB800007800002029
:103320007C00002080000020840000204801002054
:103330007001002074010020DB0FC93F0000FA4338
:10334000780100204501002000007A44AC010020F3
:103350000000000010B551EC100B2DED068BB0EE07
:10336000439AF0EE629AB0EE42AAF0EE618AB0EEB5
:10337000418A07F0A3FDBDEECA0A154910EE102AD6
:10338000BDEEE90A086081ED018A10EE103AC1ED48
:10339000058AC1E9022381ED049A9900514300EEA8
:1033A000101A0C49B8EEC00A81ED000A9FED0A0A16
:1033B0000A4929EE000A81ED000A09490860094816
:1033C00080ED008A0848C0ED008ABDEC068B10BD78
:1033D000985A00207C010020DB0F4940800100202A
:1033E00084010020880100208C01002010B51C4CB5
:1033F0004FF4AD700A2120600920FEF741FC2168DE
:1034000090FBF1F01749C0B20528087001D90520DA
:103410000870C0B29FED143A9FED141A022802D032
:10342000032815D10AE0F0EE411AF2EE0A2AB3EEB3
:103430000E2A9FED0F1A9FED0F0B07E0F2EE0A2AFE
:10344000B3EE0E2AF0EE411A9FED0C0BFFF782FF50
:103450000C49042008600C490720086010BD0000DA
:103460006801002045010020B81E853D00000000D5
:10347000BC74133E000000806ABCC43F000000A082
:10348000EFA7C63F60010020640100200CB50022B8
:10349000274900920192086840F4803008604FF498
:1034A000A043086800F4003001900098401C009090
:1034B000019810B900989842F3D10868800334D578
:1034C000012001901A484030026842F080520260A8
:1034D0001848026842F44042026015480830026809
:1034E0000260026842F400420260026842F4A052A4
:1034F0000260031F104A1A600A6842F080720A6074
:103500000A689201FCD50D4940F205720A60016813
:1035100021F003010160016841F0020101600168CE
:10352000C1F381010229FAD10CBD01920CBD00004A
:10353000003802400070004008544007003C024040
:10354000F0B5174E174F059D44F29F14002803DA7B
:1035500034602044386002E03C60201A3060124839
:10356000002903DA44632144816302E08463611A21
:1035700041630E48002A03DA84631119416302E0B3
:103580004463A11A8163002B03DA04641919C1632F
:1035900002E0C463E11A016405480560F0BD000063
:1035A00034440140344801400040014000000140E3
:1035B000381800404FF0E0210428086903D020F0BB
:1035C00004000861704740F00400FAE710B507F006
:1035D0000DFA012803D0BDE8104006F0FBBE10BD77
:1035E000124810B5016841F470010160104801688B
:1035F00041F0010101600E4A0021083211600268A9
:103600000C4B1A400260031D0B4A1A60026822F438
:103610008022026006480C300160FFF737FF034943
:103620004FF000608039086010BD000088ED00E0B8
:1036300000380240FFFFF6FE1030002470B5048C05
:1036400024F001040484058B048C4FF6FF7606EA0F
:103650000313134325F0F3052B4324F00A020A4316
:1036600042F001010383018470BDF0B5048C24F0A5
:1036700010040484078B068C4FF6FF7404EA0115CE
:1036800027F4734704EA0331394304EA02220A4368
:1036900026F0A001294341F0100102830184F0BD0E
:1036A0002DE9F041884607468AB001210220FFF744
:1036B000C7FC01214804FFF7DBFC1F4E0322082151
:1036C0003046FEF791F902208DF804000024C00175
:1036D0008DF80640012500908DF8075003208DF8E5
:1036E000050069463046FEF743F9144EADF80880F0
:1036F0000397ADF81040ADF80A4002A9304600F03B
:10370000BFFD6020ADF81400ADF81650ADF82040B4
:1037100005A9304600F068FC0821304600F09AFC0C
:103720000121304600F0A8FB0121304600F0B4FB37
:103730000AB0BDE8F08100000004024000440140EE
:103740002DE9F041884607468AB001210220FFF7A3
:1037500077FC01218804FFF78BFC214E032209210D
:103760003046FEF741F902208DF8040000240002E3
:103770008DF80640012500908DF8075003208DF844
:10378000050069463046FEF7F3F8164EADF808809E
:103790000397ADF81040ADF80A4002A9304600F09A
:1037A0006FFD6020ADF81400ADF81650ADF8204064
:1037B00005A9304600F018FC0821304600F04AFC0C
:1037C0000121304600F072FB0121304600F054FB2D
:1037D0000121304600F060FB0AB0BDE8F081000036
:1037E00000040240004801402DE9F04188460646A9
:1037F0008AB001214020FFF72FFC01210220FFF7B2
:103800001FFC02208DF818004FF440400590032063
:103810008DF819000024264F8DF81A4001258DF8E7
:103820001B5005A93846FEF7A3F809220E21384699
:10383000FEF7DAF809220F213846FEF7D5F8089688
:103840001C4EADF81C80ADF82440ADF81E4007A911
:10385000304600F015FD6020ADF80000ADF80250D4
:103860000294ADF80C40ADF810406946304600F0C7
:10387000BBFB6946304600F0F3FB0821304600F000
:10388000E9FB0821304600F035FC0121304600F00C
:103890000DFB0121304600F0FFFA064940F2DC50F2
:1038A00038310860091F08600AB0BDE8F0810000E7
:1038B00000040240001800402DE9F0418846074608
:1038C00001218AB00846FFF7D3FB01211020FFF742
:1038D000B7FB354E012209213046FEF785F801225B
:1038E0000B213046FEF780F801220D213046FEF70D
:1038F0007BF801220E213046FEF776F84FF4D440D3
:10390000059002208DF8180003208DF8190000247E
:103910008DF81A4001258DF81B5005A93046FEF799
:1039200027F8224EADF81C800897ADF82450ADF86A
:103930001E4007A9304600F0A3FC6020ADF800004F
:10394000ADF80250ADF80C406946304600F04CFB33
:103950006946304600F084FB6946304600F0D4FBEF
:103960006946304600F01EFC0121304600F09EFA08
:103970000821304600F06EFB0821304600F0BAFB0B
:103980000821304600F008FC0821304600F044FCD5
:103990000121304600F070FA0121304600F07CFA37
:1039A0000AB0BDE8F08100000010024000000140B4
:1039B0004FF08040018A018A21F0010101827047A5
:1039C00003480188018821F001010180704700004F
:1039D0001004004003480188018821F001010180A2
:1039E000704700001008004003480188018821F05A
:1039F0000101018070470000100C0040034801885D
:103A0000018821F00101018070470000101800407A
:103A10002DE9F0478E4800248169B1F5C86F13DDA8
:103A20008C490A7882B98C4A1268B2F57A7F0BDB2E
:103A300001220A7089490C7089490C7089490C70FF
:103A400089490C7089490C7080460078884D0006C1
:103A500042F20F764FF4FA772DD40221284600F077
:103A600051FA40B30221284600F013FA98F80000FA
:103A7000400628463DD500F03DFA80B2A8F8060081
:103A8000B8F804104246884201D2566300E05463FD
:103A9000401A516B08445061516A401A00D54042A7
:103AA000B84200DD51615069506288F80040002141
:103AB000284600F0C9FA98F8010000063AD404211B
:103AC000284600F01FFAA8B30421284600F0E1F9C7
:103AD00098F80100400628464AD500F00DFA80B259
:103AE000A8F80A00B8F80810424688420ED2966339
:103AF0000DE000F0FFF90146A8F8041098F8001056
:103B000041F0400188F800100221D1E79463401A87
:103B1000916B08449061916A401A00D54042B842C6
:103B200000DD91619069906288F80140002128468B
:103B300000F0D6FA98F8020000063AD40821284688
:103B400000F0E0F9A8B30821284600F0A2F998F89F
:103B50000200400628464BD500F0D0F980B2A8F804
:103B60000E00B8F80C10424688420ED2D6630DE023
:103B700000F0C2F90146A8F8081098F8011041F0C9
:103B8000400188F801100221D1E7D463401AD16BBB
:103B90000844D061D16A401A00D54042B84200DDE5
:103BA000D161D069D06288F802400021284600F037
:103BB000E9FA98F80300C146000647D410212846C8
:103BC00000F0A0F9002841D01021A846284600F0B6
:103BD00060F999F803004D4640062BD5404600F0A9
:103BE0008FF980B26882298A88420ED22E640DE055
:103BF00000F084F90146A8F80C1098F8021041F082
:103C0000400188F802100221D0E72C64401A296C88
:103C100008442862296B401A00D54042B84200DDB2
:103C20002962286A2863EC7000214046BDE8F0470D
:103C300000F0E8BA4446404600F062F92882E8788D
:103C4000022140F04000E8702046EFE7BDE8F08731
:103C50006400002056010020EC01002055010020E6
:103C60005401002057010020900100209101002004
:103C7000000401402DE9F041884605468AB0012143
:103C80000220FFF7F5F901210420FFF7D9F94FF4DD
:103C90007070022603908DF8106003208DF81100DB
:103CA0000024414F8DF812408DF8136003A9384667
:103CB000FDF75EFE032206213846FDF795FE03223E
:103CC00007213846FDF790FE032208213846FDF70C
:103CD0008BFE032209213846FDF786FE334FADF8EF
:103CE00014800695ADF81C40ADF8164005A938467D
:103CF00000F0C6FA01250F20ADF80040ADF80450E1
:103D0000ADF80800ADF80240ADF806406946384607
:103D100000F004F90420ADF80000ADF80450ADF84F
:103D20000240ADF80640ADF808406946384600F05C
:103D3000F5F80820ADF80000ADF80450ADF80240E9
:103D4000ADF80640ADF808406946384600F0E6F8A0
:103D50000C20ADF80000ADF80450ADF80240ADF80D
:103D60000640ADF808406946384600F0D7F82E20E6
:103D70008DF820008DF821608DF822608DF8235099
:103D800008A8FEF785FC01221E21384600F024F920
:103D90000121384600F08AF80121384600F07CF80D
:103DA0000AB0BDE8F08100000008024000040140B4
:103DB0000248018821F00101018070471004014090
:103DC0002DE9F0438946804601218BB00804FFF7B6
:103DD0004FF901211020FFF733F9254F0322052168
:103DE0003846FDF701FE032206213846FDF7FCFDAB
:103DF00002208DF8180003208DF819000024602699
:103E00008DF81A40012505968DF81B5005A93846F6
:103E1000FDF7AEFD174FADF81C90CDF82080ADF842
:103E20002440ADF81E4007A9384600F029FAADF845
:103E30000060ADF80250ADF80C406946384600F01D
:103E4000D3F86946384600F00BF90821384600F0EF
:103E500001F90821384600F04DF90121384600F0FB
:103E60000BF80121384600F017F80BB0BDE8F083DD
:103E700000100240004001400029018802D041F0BA
:103E8000800101E021F0800101807047C943018277
:103E90007047C943018270470029018802D041F070
:103EA000010101E021F0010101807047002930F893
:103EB000441F02D041F4004101E0C1F30E01018032
:103EC000704770B50589048B068C25F007050D43F6
:103ED0004FF6FC410C4040F201110C434FF6FF71CC
:103EE00001EA031126F022061143314305810483C0
:103EF000018470BD406B7047806B7047C06B70472A
:103F0000006C704702460020138A92890B4202EA35
:103F1000010202D0002A00D0012070472DE9F041B3
:103F20000C460E884988A2882389054616B3042EBC
:103F300028D0082E2E8C4FF6FF702BD026F48056FA
:103F40002E84AF8B2E8C00EA022200EA013127F486
:103F500073473A4300EA0330104326F420420A43F1
:103F600042F48051A8832984E1882846BDE8F041C5
:103F700000F07AB9FFF762FBE1882846BDE8F0411E
:103F800000F056B9FFF771FBE1882846BDE8F04123
:103F900000F056B926F480762E84AF8B2E8C00EA82
:103FA000012100EA0310104327F0F307384326F4F9
:103FB00020620A4342F48071A8832984E18828465C
:103FC000BDE8F04100F048B90021018041800122A4
:103FD0008280C18001817047002A828901D00A4312
:103FE00000E08A438281704730B5028C22F00102E2
:103FF0000284028C8388048B22F0020224F0730571
:104000000C882C438D8915434A882A430C4DA842BD
:1040100002D00C4DA8420DD122F00805CA8923F424
:1040200040732A4322F004058A882A430D8A1D43DF
:104030004B8A2B438380048389684163028430BDAB
:104040000000014000040140028C22F002020A43F9
:1040500002847047028B22F008020A4302837047F1
:1040600070B5028C22F010020284028C8388048BCB
:104070000D8824F4E6464FF6FF7404EA052535431F
:104080008E8922F0200204EA061616434A8804EAC2
:1040900002123243104EB04202D0104EB04215D13F
:1040A00022F08006CA8923F4406304EA02123243F4
:1040B00022F040068A8804EA021232430E8A04EA99
:1040C00086061E434B8A04EA8303334383800583B9
:1040D00089688163028470BD0000014000040140D2
:1040E000028C4FF6FF7322F0200203EA0111114304
:1040F00001847047028B4FF6FF7322F4006203EADB
:10410000012111430183704770B5028C22F4807243
:104110000284028C8388848B0D8824F073042543E9
:104120008E894FF6FF7422F4007204EA06261643C5
:104130004A8804EA02223243104EB04202D0104EA6
:10414000B04215D122F40066CA8923F4405304EA30
:104150000222324322F480668A8804EA0222324331
:104160000E8A04EA06161E434B8A04EA03133343FD
:10417000838085838968C163028470BD000001402B
:1041800000040140028C4FF6FF7322F4007203EA30
:104190000121114301847047828B22F008020A43F7
:1041A0008283704770B5028C22F480520284058CA1
:1041B0008288838B0C8823F4E6464FF6FF7303EA6C
:1041C0000424344325F400568D8903EA053535432C
:1041D0004E8803EA06362E43084DA84202D0084D09
:1041E000A84205D122F480450A8A03EA82122A43B2
:1041F0008280848389680164068470BD0000014068
:1042000000040140028C4FF6FF7322F4005203EACF
:104210000131114301847047828B4FF6FF7322F402
:10422000006203EA012111438183704741627047B4
:10423000028B22F00C020283028B0A430283704736
:10424000028B22F440620283028B4FF6FF7303EA73
:1042500001210A4302837047828B22F00C02828381
:10426000828B0A4382837047828B22F4406282836E
:10427000828B4FF6FF7303EA01210A438283704762
:1042800030B50288164C174DA0420DD0A8420BD075
:10429000B0F1804F08D0144B984205D0134B984290
:1042A00002D0134B984203D122F070034A881A437C
:1042B000104B984206D0104B984203D022F4407322
:1042C0000A891A4302804A68C2620A880285A042AB
:1042D00001D0A84201D1897A01860121818230BDB5
:1042E00000000140000401400004004000080040BC
:1042F000000C004000100040001400404FF0FF315F
:10430000416000210180018141808172704700007D
:104310000A2809DB0C48D0F80C0228B10B480078B9
:10432000012801D000207047094A012000211160B6
:10433000084A1160084A51639163084A9163916386
:104340001164D163704700000080414244010020A5
:104350003444014034480140004001400000014025
:1043600070B52F4C40F22551204600F0C7FA0028C6
:104370004ED0204600F050FBC1B22A480068B0F58C
:104380007A7F45DB294A284C002590797B292154E6
:1043900000D028B1401CC0B290710B2802D037E089
:1043A000957135E09571A07A7D2831D100210920E1
:1043B000FCF7F4FF617A88422AD11D4805701D4838
:1043C00005701D4805701D4805701D4805701D4885
:1043D00005702179E07800F07BFB1B4D85ED000A2C
:1043E000A179607900F074FB184880ED000A217A09
:1043F000E07900F06DFB1648164EF0EE400A0078AA
:10440000022807D0217AE07900F062FB86ED000AED
:10441000002070BD95ED000A00F004FBF6E70000F7
:1044200000500040B0010020CC060020A800002071
:1044300054010020560100205501002057010020A2
:1044400091010020D00100207001002074010020A3
:10445000450100207801002070B5334D40F2255110
:10446000284600F04BFA002856D0002401262846A2
:1044700000F0D2FAC1B22D480068B0F57A7F4BDB6C
:104480002C4B2B4D002218787B29295400D028B1C1
:10449000401CC0B218700B2802D03DE01A703BE0FF
:1044A0001A70A87A7D2837D10020295C401C4C4026
:1044B0000928FADB687AA04200D06EBB1E4801785A
:1044C00049B9012101701D4802701D4802701D4844
:1044D00002701D4802701D4802702979E87800F0CA
:1044E000F7FA1B4C84ED000AA979687900F0F0FA1C
:1044F000184880ED000A297AE87900F0E9FA1648B0
:10450000164EF0EE400A0078022807D0297AE879A2
:1045100000F0DEFA86ED000A002070BD94ED000A7E
:1045200000F080FAF6E7000000100140B001002022
:104530005C060020A800002090010020550100200A
:10454000540100205601002057010020D001002016
:104550007001002074010020450100207801002036
:1045600000B5054B0022985C05F0C0FA521CD2B28F
:10457000182AF8D300BD00009A0600202DE9F0416A
:1045800040F225512DED048B734800F0B7F9002857
:1045900072D07148001D008870490968B1F57A7FB2
:1045A0006ADB012100246E4D412810D12A79412A6D
:1045B0000DD16C4A137853B96B4B1C706B4B1C704C
:1045C00011706B4A14706B4A14706B4A1470C3B24A
:1045D0006A4A6B4FDFF8ACC16B4E2B714B2808D089
:1045E000492808D04A2806D036782EB1012E0BD0A3
:1045F0001EE031700CE03470A0F14106072E26D980
:10460000082814DC137013E0432809D047280BD086
:104610003C708CF80040412819D0452817D006E09E
:104620003C708CF8001002E039708CF80040147077
:104630009FED560A564A9FED579A574E58280AD072
:1046400059280DD07B2818D07D281CD00EE0A0F171
:1046500040061670ECE7D6ED000A30EE800A03E063
:10466000D6ED000A30EEC00A86ED000A687801280F
:1046700004D0022809D060E068E06970A87813547B
:10468000401CA87059E002206870D078502806D0ED
:104690005078232848D0A878E87090462AE03F4810
:1046A000017041E0A978081A06F0B9FE41EC110B3F
:1046B0009FED3B0B00F0BCFCEF78B0EE408A08EBBE
:1046C0000700F0EE608A10F8010C303806F0A7FE03
:1046D00053EC182B06F00AFF41EC180BA86807F002
:1046E000FBF953EC182B06F01BFC06F0E7FB7F1ED2
:1046F000A860EF70E8780428D4D298F80100303828
:10470000032811D2DFE800F002070B0095ED020A42
:1047100086ED000A08E095ED020A234802E095EDD7
:10472000020A224880ED000A6C70AC70EC7085EDD6
:10473000029A32211648FBF760FF96ED000AB5EEAB
:10474000C00AF1EE10FA01D286ED009A0020BDEC0D
:10475000048BBDE8F081000000440040EC01002023
:10476000A80000205501002054010020560100201F
:1047700057010020900100209101002058010020E5
:104780009201002093010020940100200000C84203
:10479000670600200000000048010020950100206D
:1047A00000000000000024404C01002050010020C7
:1047B00070B5304C40F22551204600F09FF800289B
:1047C00050D0204600F028F9C1B22B480068B0F55F
:1047D0007A7F47DB2A4A294D002450797B292954C6
:1047E00000D028B1401CC0B250710B2802D039E073
:1047F000547137E05471A87A7D2833D10021092003
:10480000FCF7CCFD697A88422CD11E4804701E4802
:1048100004701E4804701E4804701E4804701E4830
:1048200004701E4804702979E87800F051F91C4C96
:1048300084ED000AA979687900F04AF9194880EDF9
:10484000000A297AE87900F043F91748174EF0EE8C
:10485000400A0078022807D0297AE87900F038F970
:1048600086ED000A002070BD94ED000A00F0DAF831
:10487000F6E7000000480040B0010020CC06002010
:10488000A8000020540100205601002055010020FE
:10489000570100209001002091010020D00100204C
:1048A00070010020740100204501002078010020E3
:1048B00000B5054B0022985C05F020F9521CD2B2DD
:1048C000182AF8D300BD00009A06002000B5054B59
:1048D0000022985C05F01CF9521CD2B2182AF8D3B9
:1048E00000BD00009A0600200029818902D041F411
:1048F000005101E021F400518181704770B501F051
:104900001F0501260024C1F3421306FA05F2012B0C
:104910000FD0022B0FD0838A4FEA11210088134257
:1049200006FA01F600EA060001D000B10124204693
:1049300070BD8389F0E7038AEEE710B5C1F3421337
:1049400001F01F040121A140012B07D0022B07D049
:104950001430002A026805D00A4304E00C30F8E75E
:104960001030F6E78A43026010BD00007FB50446B0
:10497000008A0D46C98820F4405001432182A08955
:1049800041F20C618843A9882A8911436A8902434C
:104990001143A181A08A20F44071A8890843A08214
:1049A0006846FEF77DFB1A48844202D019488442CB
:1049B00001D1039800E00298A189090400EBC0012D
:1049C00001EB0010296801D5490000E08900B0FB27
:1049D000F1F06422B0FBF2F109010B096FF0180548
:1049E0006B4300EB8300A3891D044FF0320306D50F
:1049F00003EBC000B0FBF2F000F0070005E003EBB2
:104A00000010B0FBF2F000F00F00084320817FBDE2
:104A100000100140001401408088C0F30800704776
:104A2000FEE7000010B52DED048BB0EE608AB0EE0D
:104A3000409ADFED238AB5EEC08AF1EE10FA3CD041
:104A4000B5EEC09AF1EE10FA37D089EE080A02F0FE
:104A500067FCB4EEE80AF1EE10FA0FD8B5EEC08AA2
:104A6000F1EE10FAB0EE490A02DD02F059FC03E063
:104A700002F056FCB1EE400A80EE288A1148B6EEEC
:104A8000001A90ED000A1048C9EE080A40EE010A2B
:104A900090ED001A81EE200A10EE100A07F01CF8C3
:104AA00041EC100B00F058F851EC100B06F006FA30
:104AB00000EE100ABDEC048B10BD9FED040AF9E76F
:104AC0003333B33E84010020880100200000000041
:104AD00070B501EB002004B24FF47A7594FBF5F049
:104AE00005FB10402DED028B06F099FC9FED0B1B92
:104AF00053EC112B06F0FAFC41EC180B94FBF5F08B
:104B000006F08DFC53EC182B06F00AFA06F0D6F9E5
:104B1000BDEC028B00EE100A70BD0000FCA9F1D2C2
:104B20004D62503F03B401984100009850EAC12003
:104B300018BF04204A0D18BF40F0010040F2FF7278
:104B4000B2EB515F08BF40F00200012808BF05200A
:104B500002B070470000000070B59B482DED020BBD
:104B60002DED068B079D25F00044A04218DC9748E8
:104B7000844202DC0AD1069840B19DED060BBDECE3
:104B8000068B02B0BDE8704001F012BD002DCCBF15
:104B90009FED8F0B9FED900BBDEC068B02B070BDAF
:104BA0008F48A04215DD8F48A042D8BF4FF0FF3498
:104BB00058DD9DED060B51EC100BFFF7B3FF0428F9
:104BC00008BF01F029FD9DED060BBDEC068B02B080
:104BD00070BD9DED060B51EC100B02F095FBCDE97D
:104BE000060181489FED828BA0423CDD8248A042B5
:104BF0001FDD00249FED82AB9DED060B53EC1A2BBD
:104C000051EC100B06F08CF99DED060B41EC190BE5
:104C100053EC1A2B51EC100B06F068FC53EC182BDC
:104C200006F070FE53EC192B06F036FACDE90601BA
:104C300049E09DED060B012453EC182B51EC100BB1
:104C400006F06EF99DED060B41EC190B53EC182B99
:104C500051EC100B06F056FE53EC192B06F01CFA23
:104C6000CDE906012FE06848A0421FDD02249FED38
:104C7000689B9DED060B53EC192B51EC100B06F0C5
:104C800035FC53EC182B06F04BF99DED060B41EC6F
:104C9000180B53EC192B51EC100B06F033FE53ECB0
:104CA000182B06F0F9F9CDE906010CE09DED060B95
:104CB000032453EC102B9FED580B51EC100B06F016
:104CC000EBF9CDE906019DED060B53EC102B51ECF1
:104CD000100B06F00BFC41EC180B53EC182B06F0F4
:104CE00005FC41EC190B4E480621B0EE490AF0EEE6
:104CF000690A784401F020FA53EC182B51EC100BA0
:104D000006F0F4FB41EC180B4648B0EE490AF0EE11
:104D1000690A0521784401F00FFA53EC192B51EC84
:104D2000100B06F0E3FB41EC100B51EC180B53ECAD
:104D3000102B002C0EDA06F0F3F89DED061B53EC59
:104D4000112B06F0D3FB9DED061B53EC112B06F047
:104D500001FD35E006F0E4F89DED061B53EC112B48
:104D600006F0C4FB41EC100B2F48784400EBC40064
:104D700090ED001B51EC100B53EC112B06F0C2FD13
:104D80009DED061B53EC112B06F0BCFD41EC100B06
:104D90002648784400EBC40090ED001B51EC100B4A
:104DA00053EC112B06F0D6FC41EC100B002DA2BFEA
:104DB000BDEC068B02B070BD51EC100B06F072F822
:104DC00041EC100B01E70000000010440000F07FF0
:104DD000182D4454FB21F93F182D4454FB21F9BFF1
:104DE0000000DC3F0000203E0000F33F0000000018
:104DF000000000000000F03F0000E63F000000005F
:104E0000000000000000004000800340000000009F
:104E1000000000000000F83F000000000000F0BFAC
:104E200022910000D8900000629000001A900000CB
:104E300070B56F4E2DED040B2DED048B82B0DDF8B7
:104E400024C0DDE907235C422CF000411C4341EA09
:104E5000D474069D22F00040B44205D86C422C4325
:104E600040EAD474B4420BD99DED081B9DED060BAE
:104E700002B0BDEC048B04B0BDE8704001F0A2BBF1
:104E8000ACF14054A4F17F641C430BD0022404EA2B
:104E9000AC7444EAD27405439FED578B9FED582BB9
:104EA00007D015E09DED060B51EC100B01F00EFC48
:104EB00042E0002C11BF012C9DED060B02B0BDECB1
:104EC000048B04BF04B070BD022C38D0032C3BD03F
:104ED0000B439FED4D1B9FED4E0B0AD0B14218D1F5
:104EE000B04209D121F0804120F080400991079023
:104EF0000FE0002A15DA10E0474B7B44002C08BF76
:104F000093ED000B0DD0012C10D0022C17D0032CE8
:104F10001AD0B0421DD1002A03DAB0EE410AF0EEF9
:104F2000610A02B0BDEC048B04B070BD93ED000BC0
:104F300051EC100B05F0B6FF41EC100BF1E7B0EEB1
:104F4000480AF0EE680AECE7B0EE420AF0EE620AB8
:104F5000E7E7401A00159FED329B3C28C8BF8DED56
:104F6000000B17DCBCF1000FBCBF10F13C0F8DED46
:104F7000009B0FDB9DED080B53EC102B9DED060BFA
:104F800051EC100B06F088F802F0BEF901F09EFB20
:104F9000CDE90001B4B1012C10D0022C9FED220B01
:104FA00053EC102B9DED000B51EC100B19D006F0BB
:104FB000A9FC53EC182B06F0A5FCBDE7019880F086
:104FC000004001909DED000B53EC192B51EC100BA0
:104FD00006F0BAF904BF0220FBF7B1FB9DED000B10
:104FE0009FE706F08FFC53EC182B06F0B3FBA3E70A
:104FF0000000F07F00000000182D4454FB21094000
:10500000182D4454FB2109C0182D4454FB21F9BF2D
:10501000182D4454FB21F93FD28F000000000000FE
:105020000000000000000000075C143326A6A13C2D
:105030002DE9F04D2DED040B2DED0E8B96B0DDE935
:105040002550279CDDF890A025F0004624F000486C
:10505000BAF1000F14BF0121002101EB4502FC4908
:1050600053184A1093422AD3002814BF0123002367
:1050700003EB44030B44F7498B4220D358EA000169
:105080009FEDF59B76D0DFF8D8B35D4503D1BAF13B
:10509000000F05D188E0BAF1000F08BF002100D051
:1050A000012101EB450111F5001F08D8002814BFAC
:1050B0000121002101EB440111F5001F0BD99DEDE9
:1050C000261B9DED240B16B0BDEC0E8B04B0BDE885
:1050D000F04D01F077BA0027002DBCBFE1498845AB
:1050E00021DAE1498845A8BF02271CDAC3451ADC4A
:1050F000DE4901EB2851142908DDC1F1340220FA00
:1051000002F101FA02F282420DD108E058B9C1F170
:10511000140228FA02F101FA02F2424503D101F029
:105120000101C1F1020756EA0A0124D1002C22DA5A
:10513000002D18BF022F01D0012F0AD00220FBF74B
:10514000FEFA16B0BDEC0E8B04B0BDE8F04D01F0D8
:1051500017BA0220FBF7F3FA01F012FA51EC100B28
:1051600005F0A0FE41EC100B16B0BDEC0E8B04B0A8
:10517000BDE8F08D18E09FEDBEAB9FEDBF8B002822
:1051800071D1B848804522D105F1804010F58010DA
:1051900008BFBAF1000F07D0B3450ADC002CA8BF46
:1051A0009DED260BE0DA0DE0B0EE490AF0EE690A5B
:1051B000DAE7002C06DA9DED260B51EC100B05F01A
:1051C00071FE6FE0AE48784490ED000BCCE7D84517
:1051D0004DD1002C48DA2EB186423AD1BAF1000FF7
:1051E00042D126E0BAF1000F13D00220FBF7A7FA54
:1051F00001F002FA8DED020B9DED240B8DED000BFD
:1052000010EE900A039961F31E0003909DED020BCE
:10521000AAE78DED02AB9DED240B1AEE901A10EE6D
:10522000900A8DED000B61F31E0003909DED020BC3
:105230009AE78DED028B9DED240B18EE901A10EE7F
:10524000900A8DED000B61F31E0003909DED020BA3
:105250008AE709DA9DED240B51EC190B53EC102B66
:1052600005F01AFF1EE020E09DED240B7CE786424E
:105270001BDAB4F1804F0DD0A4F10050B0F1FF5013
:1052800013D1002D11DB9DED240B51EC100B04F01C
:1052900097F907E09DED240B53EC102B51EC100B0C
:1052A00000F0C2BC41EC100B5EE79DED240B51EC0D
:1052B000100B02F029F8BAF1000FCDE90E0142D12E
:1052C0009FED710B46B3A6F1E040B0F17F600CD0CA
:1052D0005E4538D1002D00DAA7B3022F0CBF0120A4
:1052E0004FF0FF3006F09BF8DCE7002D01DD002CCD
:1052F0000DDA002D01DD002C1FDB002D16DA002C4D
:1053000014DB012F08BF9FED620B3FF42DAFB0EE11
:105310004A0AF0EE6A0A27E7022F18BF002D0CD0C8
:10532000012F0AD1002DFFF61FAF06E0002DB8BFF8
:10533000002C08DA012F3FF417AFB0EE480AF0EE68
:10534000680A11E71BE0012000EBE57050EA070155
:1053500015D0791EB0EE498AF0EE698A084308BF7D
:105360009FED4D8B4E480025804570DD4D494E48E0
:10537000884514DDB0420DDB002C19DB2FE0012045
:10538000FBF7DDF916B0BDEC0E8B04B0BDE8F04DB7
:1053900001F022B9B34502DC002C09DC1FE0864293
:1053A00002DA002C1BDA03E05E452BDD002C16DD53
:1053B0000220FBF7C4F901F01FF98DED020B53EC4D
:1053C0001A2B51EC180B06F091F8CDE90001039966
:1053D000019861F31E0003909DED020BC4E60220CC
:1053E000FBF7ADF901F018F910EE901A18EE900ADB
:1053F0008DED020B8DED008B61F31E0003909DED92
:10540000020BB1E69DED0E0B53EC192B51EC100B7A
:1054100006F078FA9FED260BCDE9080153EC102B2E
:105420009DED080B51EC100B06F060F89FED221B70
:1054300053EC112B06F08EF99DED081B53EC112B4C
:1054400006F054F89FED1E1B53EC112B3CE08CE052
:10545000FFFF1F00FFFF0F00000000000000F03FF3
:105460000000F03F0000F07F0000404301FCFFFF20
:10547000000000000000F07F0000000000000000BD
:10548000068D000000000000000000000000008009
:10549000000000000000F0FF000000000000F0BF6E
:1054A0000000E0410000F043FFFFEF3F000000007C
:1054B000000000000000D03F555555555555D53FCB
:1054C000000000000000E03F06F044F99DED080BED
:1054D00041EC1A0B53EC102B51EC100B06F006F8B4
:1054E00053EC1A2B06F002F841EC1A0B9FEDFE0B61
:1054F00053EC102B9DED080B51EC100B05F0F6FF53
:1055000041EC1B0B9FEDFA0B51EC1A0B53EC102BDB
:1055100005F0ECFF41EC1A0B9FEDF70B53EC102B51
:105520009DED080B51EC100B05F0E0FF53EC1A2B2E
:1055300006F0E8F941EC1A0B51EC1B0B53EC1A2B5B
:1055400005F0EEFC0690CDE906519DED060B53ECFF
:105550001B2B51EC100B06F0D5F953EC1A2B06F06F
:10556000F9F841EC100B00F0A1B90020B6F5801F4E
:105570000EDA9FEDE30B53EC102B9DED0E0B51EC6F
:10558000100B05F0B3FFCDE90E016FF034000E46AD
:1055900000EB2650A0F2FF37C6F31300DA4940F0C3
:1055A0007F6646F040568842D8BF002408DDD749C0
:1055B0008142C8BF012403DC0024A6F580167F1CAD
:1055C000D348784400EBC4000F9690ED00CB9DEDDE
:1055D0000E0B53EC1C2B51EC100B06F093F99DEDC8
:1055E0000E0B41EC1B0B53EC1C2B51EC100B05F07C
:1055F00097FC41EC100B51EC190B53EC102B05F000
:105600004BFD41EC1D0B51EC1B0B53EC1D2B05F01E
:105610006DFF41EC1A0BBF488DED10AB784410952F
:1056200090ED000B4FF0005040EA660000EB844024
:105630008DED080B00F5002009909DED080B53EC53
:105640001C2B51EC100B06F05DF99DED0E1B53EC7D
:10565000112B06F07FF841EC100B53EC102B9DED55
:10566000100B51EC100B05F041FF9DED080B41ECC8
:105670001C0B53EC102B9DED100B51EC100B05F097
:1056800035FF53EC1B2B06F065F853EC1C2B06F092
:1056900039F953EC1D2B05F029FF41EC1C0B53ECA1
:1056A0001A2B51EC1A0B05F021FF41EC1B0B9A4809
:1056B0000621B0EE4B0AF0EE6B0A784400F03CFD98
:1056C000B0EE401AF0EE601AB0EE41DAF0EE61DAB8
:1056D00053EC1B2B51EC1B0B05F008FF53EC1D2B5F
:1056E00005F004FF9DED100B41EC1B0B53EC1A2B46
:1056F00051EC100B05F014FC53EC1C2B05F0F6FEDE
:1057000053EC1B2B05F00CFC9DED100B41EC1B0B1F
:1057100053EC102B51EC100B05F0E8FE41EC1D0B87
:105720009FED7FEB53EC1E2B05F0FAFB53EC1B2B8C
:1057300005F0F6FB0890CDE908519DED080B53EC00
:105740001E2B51EC100B06F0DDF853EC1D2B06F070
:10575000D9F853EC1B2B05F0FDFF9DED080B41EC38
:105760001D0B53EC102B9DED100B51EC100B05F0A5
:10577000BDFE41EC1B0B53EC1A2B51EC1D0B05F03D
:10578000B5FE9DED080B41EC1A0B53EC102B51ECC0
:105790001C0B05F0ABFE53EC1A2B05F0C1FB41ECE2
:1057A0001A0B51EC1B0B53EC1A2B05F0B9FB0C90A8
:1057B000CDE90C519DED0C0B53EC1B2B51EC100B58
:1057C00006F0A0F853EC1A2B05F0C4FF41EC1B0BBC
:1057D0009FED550B53EC102B9DED0C0B51EC100B6A
:1057E00005F084FE41EC1A0B9FED510B51EC1B0BA5
:1057F00053EC102B05F07AFE41EC1B0B9FED4E0B8A
:1058000053EC102B9DED0C0B51EC100B05F06EFEC4
:1058100053EC1B2B05F084FB41EC100B48487844FB
:1058200000EBC40090ED001B51EC100B53EC112B5E
:1058300005F076FB41EC1B0B384605F0F0FDCDE999
:10584000080153EC1B2B51EC1A0B05F069FB41ECE2
:10585000100B3C48784400EBC40090ED00CB51ECB9
:10586000100B53EC1C2B05F05BFB9DED081B53EC60
:10587000112B05F055FB0690CDE906519DED080B67
:1058800053EC102B9DED060B51EC100B06F03AF883
:1058900053EC1C2B06F036F853EC1A2B06F032F8BA
:1058A00053EC1B2B05F056FF41EC100B9DED261B16
:1058B00053EC102B8DED001B00959DED260B51EC4C
:1058C000100B05F013FE9DED000B41EC1A0B53EC91
:1058D000102B9DED260B51EC100B06F013F89DEDEF
:1058E000061B53EC112B2FE0000000604715F73F1B
:1058F000FE822B654715F73F44DF5DF80BAE543E43
:1059000000000000000040438E9803007AB60B00B0
:1059100082880000B0880000BA8700000000000004
:105920000000000000000840000000E009C7EE3F52
:10593000FD033ADC09C7EE3FF5015B14E02F3EBEE4
:10594000468600000086000005F0D0FD53EC1A2BBF
:1059500005F0E6FA9DED060B41EC1A0B53EC102B0B
:105960009DED000B51EC100B05F0C0FDCDE90C01D5
:105970009DED0C0B51EC1A0B53EC102B05F0D0FAEB
:10598000CDE902010C46AA498C422FDB611A08437B
:1059900018D19DED0C0B53EC102B9DED020B51EC2F
:1059A000100B05F0AFFF41EC1B0B9FEDA30B51EC6F
:1059B0001A0B53EC102B05F0B3FA53EC1B2B05F02C
:1059C00093FE2DD20220FAF7BAFE00F015FE10EE7B
:1059D000901A18EE900A8DED020B8DED008B61F39D
:1059E0001E0003909DED020BFFF7BEBB944A24F00E
:1059F0000041914214D39349214408437FF4EFAC12
:105A00009DED0C0B53EC102B9DED020B51EC100B8C
:105A100005F078FF53EC1A2B05F066FE7FF6DFAC3D
:105A200024F000408849894A002601EB2051824237
:105A30002BDA481C4FF4801121FA00F02044844AEC
:105A4000C0F30A517A44A1F2FF3192ED000B814A72
:105A50008DED080BCA4020EA0202C0F3130040F4A7
:105A60008010C1F1140120FA01F60992002CB8BF90
:105A700076429DED080B53EC102B9DED0C0B51EC79
:105A8000100B05F03FFFCDE90C019DED0C0B51EC27
:105A90001A0B53EC102B05F043FA9FED6F0B089097
:105AA000CDE9085153EC102B9DED080B51EC100B78
:105AB00005F01CFD41EC1B0B9FED690B53EC102B0B
:105AC0009DED080B51EC100B05F010FD9DED0C0B3E
:105AD00041EC1C0B53EC102B9DED080B51EC100B03
